:020000040800F2
:1000000030070020010100083B1D00082D170008E3
:10001000391D000831070008912300080000000086
:10002000000000000000000000000000D3200008D5
:100030003307000800000000D1200008D520000888
:100040001B0100081B0100081B0100081B01000820
:100050001B0100081B0100081B0100081B01000810
:100060001B0100081B0100081B0100081B01000800
:100070001B0100081B0100081B0100081B010008F0
:100080001B0100081B0100081B0100081B010008E0
:100090001B0100081B0100081B0100081B010008D0
:1000A0001B0100081B0100081B0100081B010008C0
:1000B0001B0100081B0100081B0100081B010008B0
:1000C0001B0100081B0100081B0100081B010008A0
:1000D0001B0100081B0100081B0100088523000804
:1000E0001B0100081B0100081B010008DFF80CD0F1
:1000F00000F08EFA00480047392D00083007002034
:100100000648804706480047FEE7FEE7FEE7FEE7B1
:10011000FEE7FEE7FEE7FEE7FEE7FEE73721000821
:10012000ED000008202A04DB203A21FA02F0002129
:10013000704721FA02F3D040C2F1200291400843F7
:100140001946704740EA01039B0703D009E008C93C
:10015000121F08C0042AFAD203E011F8013B00F88C
:10016000013B521EF9D27047D2B201E000F8012BD8
:10017000491EFBD270470022F6E710B513460A4627
:1001800004461946FFF7F0FF204610BD421E12F844
:10019000013F002BFBD111F8013B02F8013B002B82
:1001A000F9D1704730B505462A460B4612F8010BC7
:1001B00013F8014B08B1A042F8D01CB1002802D0BE
:1001C0006D1CF1E7284630BDCAB2401E10F8011F71
:1001D0008A4202D00029F9D100207047421C10F851
:1001E000011B0029FBD1801A704710B5044600E0BE
:1001F000401C0378002BFBD100E0401C521E04D3AE
:1002000011F8013B0370002BF7D10021017020464B
:1002100010BD30B50B46014600202022012409E024
:1002200021FA02F59D4205D303FA02F5491B04FAAF
:1002300002F52844151EA2F10102F1DC30BD2DE9C2
:10024000F05F0546002092469B468846064681465A
:1002500040241BE02846414647462246FFF762FFFE
:1002600053465A46C01A914110D3114618462246A9
:1002700000F0E0F92D1A67EB01084F4622460120F5
:10028000002100F0D7F917EB00094E41201EA4F120
:100290000104DFDC484631462A464346BDE8F09F6C
:1002A0002DE9FE4F804681EA0300C00F0C46009006
:1002B00021F0004123F00045B8EB0200A94105D22E
:1002C0004046214690461C460B46024623F000401D
:1002D000104347D0270DC7F30A00C3F30A51029019
:1002E000401A019040286BDAC3F3130040F4801BDE
:1002F0000098924620B10023D2EB030A63EB0B0B6C
:1003000001985946C0F14002504600F093F9064664
:100310000D4650465946019A00F09BF910EB080033
:100320006141002487EA115284EAE7731A4340D0FE
:10033000009A62B3019A012A4FEA075215DC001BAA
:1003400061EB02014FF0004202EA0752CDE90042A0
:10035000001C41F5801132462B4600F09BF903B09A
:10036000BDE8F08F40462146F9E7001B61EB020132
:10037000001C41F5801300185B412018A2F50017FE
:1003800047EB030140EAD570B6196D4111E06D08E5
:100390004FEA360645EAC0754FEA0752001B61EB8B
:1003A0000201001C41F5801149084FEA3000001994
:1003B000514132462B4603B0BDE8F04F00F05BB927
:1003C0000098012240000023D0EB020263EBE073AF
:1003D000009821464FEAE074B8EB000061EB04019D
:1003E000E9E783F000435BE781F0004158E72DE93E
:1003F000FE4F81EA030404F0004421F00041009420
:100400004FF0000B23F0004350EA01045ED052EAA3
:1004100003045BD0C3F30A54C1F30A552C44A4F27D
:10042000F3340194A0FB0254C1F3130141F4801191
:10043000C3F3130343F4801301FB024400FB034E98
:10044000840A970A44EA815447EA8357A4FB076861
:1004500002958D0A05FB07854FEA932C04FB0C548B
:100460002705029D4FEA065847EA1637B5EB0805FF
:100470006EEB070C870E920E47EA811742EA831251
:10048000A7FB0201B6EB0B0164EB00042B0D43EA62
:100490000C335E1844EB1C50DA465146E7FB020170
:1004A000C5F313044FEA0B3343EA14534FEA043203
:1004B000019C43EA0603A4F10C040294009CCDE9DC
:1004C00000B400F0E7F803B0BDE8F08F002001466B
:1004D000F9E72DE9F04D81EA030404F0004B21F027
:1004E000004514464FF0000A23F0004150EA05028F
:1004F00020D054EA01021DD0C5F30A570246C5F3C5
:100500001303C1F31300C1F30A5640F4801543F4FA
:100510008013A7EB0608101BD64608F2FD3873EBD4
:10052000050002D308F1010801E092185B41B8F11F
:10053000000F03DA00200146BDE8F08D00204FF4E3
:100540008011064684460EE0171B73EB050705D3A2
:10055000121B63EB050306434CEA010C49084FEA02
:10056000300092185B4150EA0107EDD152EA0300D6
:1005700012D082EA040083EA0501084305D0101B6B
:10058000AB4106D20122002306E000224FF00043D7
:1005900002E06FF0010253101AEB06004CEB085119
:1005A00010EB0A0041EB0B01BDE8F04D00F063B821
:1005B000C1F30A52C1F3130140F2FF3341F4801139
:1005C0009A4202DA00200146704740F233439A42D1
:1005D000A2F2334202DC5242FFF7A4BD00F02AB877
:1005E00030B5041E71F1000404DB4FF000444042BA
:1005F00064EB0101141E73F1000405DB1C464FF08F
:100600000043524263EB0403994208BF904230BD5D
:10061000064C074D06E0E06840F0010394E807004F
:1006200098471034AC42F6D3FFF764FD142E00084F
:10063000342E0008202A04DB203A00FA02F10020C0
:1006400070479140C2F1200320FA03F31943904010
:100650007047202A06DBCB17203A41FA02F043EA22
:10066000E07306E041FA02F3D040C2F1200291406B
:1006700008431946704710B5141E73F1000408DAD8
:10068000401C41F1000192185B411A4301D120F056
:10069000010010BD2DE9F04D92469B4611B1B1FA13
:1006A00081F202E0B0FA80F220329046FFF7C2FFFA
:1006B00004460F4640EA0A0041EA0B0153465A46F7
:1006C000084313D0114653EA010019D0C8F1400283
:1006D0005046FFF727FD05460E465046594642460E
:1006E000FFF7A8FF084305D0012004E02046394663
:1006F000BDE8F08D0020054346EAE0762C43374301
:100700000A986305E40AA0EB08000022FD0A44EA07
:1007100047540A3002D500200146E9E701051019C7
:100720006941DDE9084500196941BDE8F04DA2E7DE
:10073000FEE7704710B580210348FFF71CFD034911
:100740000020088010BD0000AC0000201000002038
:1007500010B5044600F002F958B90AA10B48FFF79A
:1007600021FD30B13A21FFF72FFD002800D0401CB9
:1007700010BD052000F074F92046641EA4B2E9D231
:1007800010BD00004950442C00000000AC000020C7
:1007900010B5FFF7CFFF1DA001F008FE4FF47A74EB
:1007A00002E0204600F05CF91AA11BA000F08EF8D0
:1007B0000028F6D11AA001F0F9FD02E0204600F071
:1007C0004FF914A119A000F081F80028F6D11BA060
:1007D00001F0ECFD02E0204600F042F91AA11CA055
:1007E00000F074F80028F6D121A001F0DFFD02E04E
:1007F000204600F035F922A123A000F067F8002878
:10080000F6D1BDE810402BA001F0D0BD312E204123
:10081000540D0A004F4B000041540D0A0000000027
:10082000322E2043574D4F44450D0A0041542B436F
:10083000574D4F44453D310D0A000000332E2043F3
:10084000574A41500D0A0000474F542049500000BC
:1008500041542B43574A41503D22657370222C224C
:100860003132333435366C6C6A6A220D0A0000006E
:10087000342E2043495053544152540D0A00000075
:10088000434F4E4E4543540041542B43495053541B
:100890004152543D22544350222C223138332E32BF
:1008A00033302E34302E3339222C363030320D0A8C
:1008B00000000000352E204553503832363620498E
:1008C0006E6974204F4B0D0A0000000070B50E4693
:1008D0000546C824FFF782FC82B229460B4801F086
:1008E00058FD0EE000F03AF840B931460848FFF7ED
:1008F00059FC18B1FFF71EFF002070BD0A2000F060
:10090000AFF8641EE4B2EDD2012070BD6800002093
:10091000AC00002030B589B00C460546FFF70AFF51
:10092000224608A1684601F051FD0AA16846FFF77A
:10093000CDFF002804D122462946074801F029FDB1
:1009400009B030BD41542B43495053454E443D25D9
:10095000640D0A003E00000068000020064801887F
:1009600031B14288914205D100210180084670478B
:10097000012070474180FBE71000002072B6FEE7BF
:1009800010B590F821100022022905D004218163BE
:1009900080F82020012010BD01680B6823F00E03B1
:1009A0000B6001680B6823F001030B6090F8403086
:1009B000C46B012101FA03F3636080F8211080F811
:1009C0002020104610BD000010B590F82110002422
:1009D000022903D00421816301243DE001680A68F3
:1009E00022F00E020A6001680A6822F001020A6021
:1009F0001A4A0168914201D1012121E0174A1432BB
:100A0000914201D110211BE0144A2832914201D1B8
:100A1000891515E0114A3C32914201D189140FE049
:100A20000E4A5032914202D14FF4803108E00B4A15
:100A30006432914202D14FF4801101E04FF0807195
:100A4000064A083A5160012180F82110002180F8FF
:100A50002010416B01B18847204610BD08000240BC
:100A600070B5044600F0FEF80546601C02D004484C
:100A70000078044400F0F6F8401BA042FAD370BDA1
:100A8000000000202DE9F84FDFF8B891002409F1AB
:100A9000040A0AF1040B23460F270BF1040EC9E0E8
:100AA0000125A5402A40AA427DD1674ED1F804C055
:100AB000ACEB0608B44532D014DCBCF1030F3AD0DD
:100AC00009DCBCF1000F2AD0BCF1010F1CD0BCF135
:100AD000020F31D11DE0BCF1110F17D0BCF1120F84
:100AE0002AD119E0B8F5881F19D006DCB8F5803F87
:100AF00015D0B8F5801F1FD111E0B8F5001F0ED03A
:100B0000B8F5041F18D10AE0CB6815E0CB681B1DAF
:100B100012E0CB6808330FE0CB680C330CE08B6835
:100B20002BB1012B4FF0080303D0456104E00423EF
:100B300002E0056100E00023FF2A01D8064601E03B
:100B400000F104064FEA840501D9A5F12005D6F885
:100B5000008007FA05FC28EA0C0803FA05F548EAC4
:100B60000508C6F800804D68ED0062D5374DAE69C6
:100B700046F00106AE61AD6924F0030605F00105FB
:100B80000095334D06EB050CDCF80850A607360F30
:100B900007FA06F825EA0805DFF8B880404503D1D2
:100BA0004FF0000817E044E0DFF8AC80404502D188
:100BB0004FF001080FE0DFF8A480404502D14FF06C
:100BC000020808E0DFF89880404502D14FF00308A2
:100BD00001E04FF0040808FA06F848EA0508CCF8E6
:100BE00008804D68D9F80060ED034D4601D51643E5
:100BF00000E096432E604D68DAF80060AD0355467C
:100C000001D5164300E096432E604D68DBF8006086
:100C1000ED025D4601D5164300E096432E604D6817
:100C2000DEF80060AD02754601D5164300E096433C
:100C30002E60641C0D682A46E5407FF431AFBDE8A4
:100C4000F88F000000040140000011100010024065
:100C50000000014000080140000C0140001001406C
:100C60000014014001488068704700000000002027
:100C700002488168027811448160704700000020BA
:100C8000074810B5016841F010010160032000F031
:100C900075F80F2000F006F800F024F8002010BDD1
:100CA0000020024070B50D4D04464FF47A7128784B
:100CB000B1FBF0F00A490968B1FBF0F000F0ECFA82
:100CC00048B9102C07D200222146501E00F036F8F9
:100CD00000206C6070BD012070BD0000000000208D
:100CE0000C0000200C4808B5816941F001018161C8
:100CF000816901F001010091C16941F08051C16138
:100D0000C06900F0805000900448416821F0E06123
:100D100041F00071416008BD001002400000014038
:100D2000002809DB00F01F020121914040098000EA
:100D300000F1E020C0F8001170470000F0B40E4B45
:100D40001B680C46C3F30223C3F10705042D00D929
:100D50000425191D072901D2002300E0DB1E01260E
:100D600006FA05F1491E214099409E40761E164024
:100D70003143F0BC01F03EBB0CED00E0064900F051
:100D8000070208684FF6FF03184040EA0220034AB2
:100D900010430860704700000CED00E00000FA0509
:100DA0002DE9F0470F46050061D0434E306800F052
:100DB0000700B84209D2306820F00700384330609D
:100DC000306800F00700B84251D128683B4C8107D9
:100DD00012D5400703D5606840F4E0606060287871
:100DE000000703D5606840F4605060606068A968DF
:100DF00020F0F000084360602878C00728D06868B9
:100E0000012810D02168022810D0890700292EDA85
:100E1000616821F0030101436160FFF723FF804611
:100E200041F288390DE021688903EFE78901EDE798
:100E3000FFF718FFA0EB0801494502D90320BDE8E0
:100E4000F0876068696800F00C00B0EB810FEFD1AB
:100E5000306800F00700B8420BD9306820F0070076
:100E600038433060306800F00700B84201D00120FC
:100E7000E5E72878400705D56068E96820F4E06078
:100E8000084360602878000706D56068296920F467
:100E9000605040EAC100606000F038F86168084ABC
:100EA000C1F30311515CC840064908600648006858
:100EB000FFF7F8FE0020C2E70020024000100240C9
:100EC000FC2D00080C000020040000200448054907
:100ED00000684968044AC1F30221515CC840704768
:100EE0000C000020001002400C2E000804480549A8
:100EF00000684968044AC1F3C221515CC840704788
:100F00000C000020001002400C2E000812A185B039
:100F10000FC98DE80F0014A0144A006804905168AE
:100F2000134801F00C03042B10D0082B0ED1C1F391
:100F30008343C9031DF803000AD5516804AAC1F30D
:100F40004041515C0A4A5043B0FBF1F005B0704794
:100F500008494843FAE700000203040506070809A8
:100F60000A0B0C0D0E0F10100102000000100240C1
:100F700000127A0000093D002DE9F84F040070D0FE
:100F80002078C04DC00749D06868C0F381000128AF
:100F900007D06868C0F38100022809D16868C003DF
:100FA00006D52868800339D560680028E7D035E089
:100FB0006068B0F5803F0BD010B1B0F5A02F11D014
:100FC000286820F480302860286820F4802002E01F
:100FD000286840F480302860606890B1FFF742FED6
:100FE00006460AE0286840F480202860F0E700BF49
:100FF000FFF738FE801B642873D828688003F7D574
:101000000CE0FFF72FFE064605E000BFFFF72AFEC3
:10101000801B6428F0D828688003F7D420789A4E83
:1010200080074FF001094FF0000839D5686810F0CB
:101030000C0F07D06868C0F38100022809D16868E6
:10104000C00306D42868800714D52069012808D178
:1010500010E02069B0B1C6F80090FFF703FE074624
:1010600005E00AE1FFF7FEFDC01B0228C4D828688E
:101070008007F7D52868616920F0F80040EAC100D0
:1010800028600DE0C6F80080FFF7ECFD074604E09D
:10109000FFF7E8FDC01B022823D828688007F7D493
:1010A000207800072CD57948A169D9B1C0F8009003
:1010B000FFF7D8FD074604E0FFF7D4FDC01B022868
:1010C0000FD8686A8007F7D571484FF4FA51006865
:1010D000B0FBF1F0009000BF0098411E0091FAD2E1
:1010E0000EE080E0C0F80080FFF7BCFD074604E09A
:1010F000FFF7B8FDC01B022875D8686A8007F7D4CF
:101100002078400760D5E8690027C00008D4E86966
:1011100040F08050E861E869012700F080500090BD
:101120005C480168C90513D40168834641F48071A5
:101130000160FFF797FD824606E000BFFFF792FDD2
:10114000A0EB0A0064284ED8DBF80000C005F5D5F6
:10115000E06801280AD008B1052813D0286A20F0D9
:1011600001002862286A20F0040002E0286A40F0AA
:1011700001002862E06841F2883B98B1FFF772FDF8
:1011800082460BE0286A40F004002862EEE700BFC8
:10119000FFF768FDA0EB0A0159455AD8286A800775
:1011A000F6D50CE0FFF75EFD824605E0FFF75AFD3D
:1011B000A0EB0A0159454CD8286A8007F6D41FB124
:1011C000E86920F08050E861E06988B36968C1F39C
:1011D0008101022944D00228C6F8608004D0FFF7BC
:1011E00041FD044638E034E0FFF73CFD074604E0EB
:1011F000FFF738FDC01B02282BD828688001F7D4E0
:10120000206AB0F5803F05D16868A16820F40030FD
:1012100008436860D4E908010843696821F474113F
:1012200008436860C6F86090FFF71CFD044606E0BE
:1012300025E000BFFFF716FD001B022809D828682B
:101240008001F7D51BE000BFFFF70CFD001B022853
:1012500002D90320BDE8F88F28688001F4D40EE09D
:101260000128F7D06868226A00F48031914204D1E5
:10127000616A00F47010884201D00120EAE7002082
:10128000E8E70000001002400000424280044242B1
:101290000C0000200070004010B5401EB0F1807FAF
:1012A00001D3012010BD4FF0E02460610F216017D1
:1012B00001F0A0F80020A06107202061002010BDEF
:1012C0007047704710F83D1F407808437047000092
:1012D000F8B5026804461068D168536910F00F0F22
:1012E0004FF0000554D003F0010601F49077374326
:1012F0005FD0C20705D0CA0503D5226C42F00102B7
:101300002264420705D5DA0703D0226C42F00202BC
:101310002264820705D5DA0703D0226C42F004026A
:101320002264020707D501F02002324303D0226C69
:1013300042F008022264226C002A35D0800604D5CF
:10134000880602D5204600F017FF20684069216C0E
:10135000C0F3801001F008010143204625D000F0C1
:10136000F3FE2068416949061BD5416921F040011F
:101370004161A06BA8B158494163A06BFFF724FB02
:10138000002811D0A06B416B01B0BDE8F0400847C8
:1013900083060ED58B060CD52046BDE8F84000F03C
:1013A000EBBE2046FFF78DFFF8BDFFF78AFF2564EF
:1013B000F8BD266B2023012E52D1C60650D5CE068D
:1013C0004ED5106850680090506940062AD5A16B30
:1013D000086840680004000CEAD0A68D8642E7D970
:1013E000E0858869202818D0D06820F48070D0600B
:1013F0002068416921F0010141612068416921F0C3
:101400004001416184F83E3025632068C16821F0C5
:101410001001C160A06BFFF7B3FAA08DE18D401AF7
:1014200081B219E0A08DE18D401A81B2E08D0028D3
:10143000BED00029BCD0D06820F49070D060206865
:10144000426922F00102426184F83E30256320683F
:10145000C26822F01002C2602046FFF731FFF8BDDB
:1014600005062BD50D0629D594F83D002128F6D187
:10147000A068B0F5805F01D12069B0B1206A411C3D
:101480002162216800784860E08C401E0004000C56
:10149000E084E4D12068C16821F08001C160206847
:1014A000C16841F04001C160F8BD206A0088C0F306
:1014B00008005060206A801C2062E5E74006F3D5F2
:1014C0004806F1D5D168204621F04001D16084F86A
:1014D0003D3000F02AF9F8BD3921000870B504004C
:1014E00004D094F83D00002510B106E0012070BD45
:1014F00084F83C50204600F023F8242084F83D0076
:101500002068C16821F40051C160204600F090FEBF
:101510002068016921F4904101612068416921F04E
:101520002A0141612068C16841F40051C16025640D
:10153000202084F83D0084F83E00002070BD0000AB
:1015400070B586B00024009401940294039403685B
:101550002B482A4E022103220515B34221D183696B
:1015600043F480438361836903F480430493836974
:1015700043F0040383618069224E00F0040004906C
:101580000802CDE90001039269463046FFF77AFA76
:10159000CDE90054694630460294FFF773FA06B06D
:1015A00070BD194EB342FAD1C36943F48023C361BD
:1015B000C36903F480230493836943F008038361C0
:1015C0008069CDE9005100F00800CDE903200F4DFE
:1015D00069462846FFF756FAE814CDE90004694643
:1015E00028460294FFF74EFA002211462720FFF703
:1015F000A5FB2720FFF794FBD1E70000003801404E
:10160000001002400008014000480040000C01406A
:1016100090F83E30202B0ED159B152B190F83C30A9
:10162000012B08D0012380F83C300023036300F035
:101630005BBE012070470220704700000A498842C3
:1016400011D10A490888802801D300200880084861
:10165000084B027808881A54401C0880012204496B
:101660000148FFF7D5BF7047680000201000002038
:1016700014000020AC0000202DE9F843044690F847
:101680003D001F4616460D4620284CD1C5B1BEB1BF
:1016900094F83C00012846D0012084F83C004FF02B
:1016A0000008C4F84080212084F83D00FFF7DAFAF2
:1016B000A6848146E684A068B0F5805F03D004E08C
:1016C0000120BDE8F883206928B12E465FF00005AF
:1016D00084F83C800EE00026FAE78021204600F0E6
:1016E0001EFEA0B9AEB116F8010B21684860E08C6F
:1016F000401EE084E08C4B464FF00002009700282B
:10170000EBD14FF04001204600F009FE30B103203C
:10171000D7E735F8020BC0F30800E6E7202084F88D
:101720003D000020CDE70220CBE77047FEE710B573
:101730000446007B012802D1206801F0D5FA002080
:1017400020606060A060207310BD00005FF00102A7
:1017500000F07F030B70C00909D043F08003521CD6
:1017600001F8013B042AF3DD4FF0FF3070471046CB
:1017700070472DE9F0410446002500680F462E46CB
:1017800010B10220207315E001202073084601F0FB
:10179000FFFA2060002808D0C4E9016702E0206851
:1017A00046556D1CA068A842F9D8BDE8F0812068B4
:1017B00046556D1CA068A842F9D866608842F4D2EC
:1017C0002660F2E72DE9FF5F9A4693460025104612
:1017D000DDF844900E9F139CFEF700FD06B2BBF1AE
:1017E000000F1FD006F111001FFA80F807B1022583
:1017F000109868B145F00405FEF7F0FCC7B2484602
:10180000FEF7ECFCC11901EB0800001D1FFA80F87F
:101810000F9870B1012807D0022808D0022004B028
:10182000BDE8F09F0120FAE745F00C0501E045F026
:101830001405129808B145F02405009860B301988A
:1018400050B345F0C0070098FEF7C8FC0546019864
:10185000FEF7C4FC291801EB0800001D85B22946DB
:101860002046FFF786FF2068C0B12946FEF783FCBB
:10187000D4E90030411C102261601A54D4E90001FF
:101880000144681FFFF762FF00B2002808DA204613
:10189000FFF74DFF0520C2E70320C0E70420BEE7A5
:1018A000616823680844411C616000221A54D4E92D
:1018B0000030421C042162601954D4E90050421CDB
:1018C0004D2362602B54D4E90050421C62605123C6
:1018D0002B54D4E90030451C542265601A54D4E9D5
:1018E0000050431C63602A54D4E90030421C6260FB
:1018F0001954D4E90020411C61601754D4E9003028
:10190000411C4FEA1A2261601A54D4E90030421C8B
:10191000626003F800A0D4E90030411C320A616023
:101920001A54D4E90020411C61601654D4E9000126
:10193000084432465946FEF758FC606830446060FF
:10194000780736D5B9F1000F01D10FF2D8091098F8
:10195000FEF744FC85B2D4E90030411C2A0A6160DC
:101960001A54D4E90020411C61601554D4E90001E7
:1019700008442A461099FEF738FC606828446060E5
:101980004846FEF72BFC85B2D4E90030411C2A0AF8
:1019900061601A54D4E90020411C61601554D4E9F7
:1019A000000108442A464946FEF71FFC60682844A7
:1019B0006060380618D50098FEF710FC85B2D4E9AF
:1019C0000030411C2A0A61601A54D4E90020411CED
:1019D00061601554D4E9000108442A460099FEF7D5
:1019E00004FC606828446060780618D50198FEF70A
:1019F000F5FB85B2D4E90030411C2A0A61601A5413
:101A0000D4E90020411C61601554D4E90001084468
:101A10002A460199FEF7E9FB6068284460600020CF
:101A2000FDE60000000000002DE9FF4F81B0904668
:101A30004FF00006119C0F9A9A465FEA000BB146E0
:101A4000314608D1012005B0BDE8F08F232816D01B
:101A50002B2814D0761C0298805D0028F6D141F026
:101A600030070AB147F0010706EB0A050E98AD1CD6
:101A700068B1012805D0022806D00320E3E7022040
:101A8000E1E747F0020701E047F00407AD1CB8F1B9
:101A9000000F03D098F80000022807D0E91C204668
:101AA000FFF767FE206850B3E91C14E05FF0000008
:101AB00018F80010401C7D29FAD100F10409AAEBA6
:101AC0000900291A00912046C91CFFF752FE206820
:101AD000A8B10099C91CFEF74EFBD4E90020411CB7
:101AE00061601754D4E9000101442846FFF72EFE37
:101AF000002806DA2046FFF71AFE0520A3E7042097
:101B0000A1E7616823680844411C320A61601A54E5
:101B1000D4E90020411C61601654D4E90001084456
:101B200032460299FEF761FB6068304460600E99AE
:101B300059B12368411C4FEA1B2261601A54D4E951
:101B40000030421C626003F800B0B8F1000F0ED004
:101B500098F800000228D4E90001084409D0524650
:101B60004146FEF7EFFA616801EB0A006060002071
:101B700069E74A464146FEF7E5FA616801EB09006C
:101B8000F4E700007FB50D460120089C0021CDE957
:101B90000204CDE900011E460A46EB1C0CA10A20F6
:101BA000FFF742FF10B1012004B070BDD4E900205E
:101BB000411C61601654D4E90030411C2A0A61605E
:101BC0001A54D4E90020411C616015540020EBE751
:101BD00024647000F0B50446002001235D05106008
:101BE00012E0275C166807F07F0707FB03661660A4
:101BF000265C360601D4401CF0BDDB01AB4202D3AB
:101C00006FF00100F0BD401C8842EADB4FF0FF306E
:101C1000F0BD4178022901D001207047817819B1C7
:101C2000012901D0FF207047C078704738B50446BD
:101C30000078FF210009421E0E2A01D3084638BD54
:101C40000328FCD1002000906A460421601CFFF7A5
:101C5000C1FF20440099401C022907D32278D207F3
:101C600004D1028852BA921C8A4201D9FF2038BDA1
:101C700004A1801CFEF796FA08B10F2038BD03209E
:101C800038BD000024637265710000000D4808B57E
:101C9000816941F020018161816901F02001009199
:101CA000816941F008018161816901F008010091B9
:101CB000816941F004018161806900F004000090B5
:101CC00008BD0000001002400C4810B50A49016030
:101CD0004FF4E1314160002181600C22C160C0E914
:101CE00004128161C161FFF7F9FB002803D0BDE850
:101CF0001040FEF743BE10BD003801402400002014
:101D00000C4810B50A4901604FF4E13141600021EF
:101D100081600C22C160C0E904128161C161FFF7DA
:101D2000DDFB002803D0BDE81040FEF727BE10BD44
:101D30000048004068000020FEE7FEE730B58BB0A9
:101D40000024069407940894012524A326A228A120
:101D500029A0099400F02AFB06A8CDE904400294CA
:101D6000039400942B021DA21FA121A00194FFF750
:101D700029FD28B12CA000F019FB0BB0284630BD7E
:101D8000079881B20698FEF7C5FDFA20FEF7E0FC41
:101D900004001DD0FFF74AFF022819D12046FFF7A3
:101DA00038FF062818D2DFE800F003080A0C0E10EE
:101DB00026A000F0FBFA00250AE029A006E02FA0EB
:101DC00004E037A002E03EA000E046A000F0EEFAFA
:101DD00006A8FFF7ACFCD0E74DA0F7E73130363767
:101DE0007878363733340000313278783536000071
:101DF00035397878333100004F6E654E65745F4435
:101E000065764C696E6B0D0A50524F49443A202555
:101E1000732C09415549463A2025732C09444556EF
:101E200049443A25730D0A005741524E3A094D5123
:101E300054545F5061636B6574436F6E6E65637479
:101E4000204661696C65640D0A0000005469707376
:101E50003A09C1ACBDD3B3C9B9A60D0A0000000050
:101E60005741524E3A09C1ACBDD3CAA7B0DCA3BAA0
:101E7000D0ADD2E9B4EDCEF30D0A00005741524E79
:101E80003A09C1ACBDD3CAA7B0DCA3BAB7C7B7A8DB
:101E9000B5C4636C69656E7469640D0A0000000066
:101EA0005741524E3A09C1ACBDD3CAA7B0DCA3BA60
:101EB000B7FECEF1C6F7CAA7B0DC0D0A00000000DD
:101EC0005741524E3A09C1ACBDD3CAA7B0DCA3BA40
:101ED000D3C3BBA7C3FBBBF2C3DCC2EBB4EDCEF3F1
:101EE0000D0A00005741524E3A09C1ACBDD3CAA7F2
:101EF000B0DCA3BAB7C7B7A8C1B4BDD328B1C8C8AE
:101F0000E7746F6B656EB7C7B7A8290D0A000000AC
:101F10004552523A09C1ACBDD3CAA7B0DCA3BACE70
:101F2000B4D6AAB4EDCEF30D0A00000010B588B007
:101F3000044620216846FEF71EF921A020210088D2
:101F400020806846FEF717F900221EA1684600F0BF
:101F50003DFA69462046FEF719F920216846FEF74A
:101F60000AF900221AA1684600F030FA69462046B4
:101F7000FEF70CF920216846FEF7FDF8002217A1B4
:101F8000684600F023FA69462046FEF7FFF8202154
:101F90006846FEF7F0F80022134613A1684600F0E9
:101FA00015FA69462046FEF7F1F813A12046FEF720
:101FB000EDF82046FEF712F908B0C0B210BD0000DF
:101FC0007B0000002268756D223A25642C00000019
:101FD0002274656D70223A25642C0000226D7134E4
:101FE000223A25642C00000022626D7031383022C4
:101FF0003A252E32660000007D00000030B5A7B003
:1020000000202390249025900446269019A000F0EB
:10201000CDF9802101A8FEF7AEF801A8FFF786FFF1
:1020200005000BD023A8009003230022294619A005
:10203000FFF7A8FD70B11AA000F0B8F927B030BDC5
:10204000015DDDE92323D1542499491C641C24B289
:10205000249100E001A8AC42F2DB249881B22398DD
:10206000FEF758FC16A0249900F0A0F923A8FFF76A
:102070005EFBE3E7546970733A094F6E654E657411
:102080005F53656E64446174612D4D5154540D0A63
:1020900000000000313036377878363733340000AE
:1020A0005741524E3A094544505F4E657742756636
:1020B000666572204661696C65640D0A0000000067
:1020C00053656E642025642042797465730D0A009F
:1020D00070477047FEF7CCBD30B58FB028216846F9
:1020E000FEF749F814210AA8FEF745F80121080473
:1020F000CDE900100024029402250491CDE9075097
:102100004FF4E01009906846FEF736FF08B172B64A
:10211000FEE70F20CDE90A054FF48060CDE90C40C1
:1021200002210AA80E94FEF73BFE002801D072B6E9
:10213000FEE70FB030BD704710B5406A0021C18581
:10214000C184FFF7BEF810BD0168CA6822F490721E
:10215000CA6001684A6922F001024A61016B0129E3
:1021600004D10168CA6822F01002CA60202180F8F8
:102170003E1000210163704708B590F83E102229F7
:1021800001D0022008BD82684FF480539A4201D1E9
:10219000016921B1816A9A421BD04AB10AE0026802
:1021A000816A5268C2F308020A80816A891C08E0C9
:1021B000026972B10268526802F07F020A70816A95
:1021C000491C8162C18D491E0904090CC18503D0D7
:1021D00019E002685268F1E70168CA6822F020023B
:1021E000CA600168CA6822F48072CA6001684A69DC
:1021F00022F001024A61202180F83E10016B012982
:1022000003D0FFF71BFA002008BD0021016301681D
:10221000CA6822F01002CA6001680A68D20602D5B4
:102220000A6849680091818DFFF74AF8EBE70000E2
:1022300070B5044600680169E26821F44051114319
:1022400001612169A0680843616908432168CA687F
:1022500041F20C639A430243CA6020684169A26953
:1022600021F44071114341611E492068884202D126
:10227000FEF73CFE01E0FEF729FE00EBC00101EB9A
:102280000012606864218000B2FBF0F3B3FBF1F34D
:102290006FF018067343B2FBF0F5B2FBF0F605EBF6
:1022A0008305322303EB0515B5FBF1F5B6FBF1F61B
:1022B00005F0F00505EB0615B2FBF0F6B2FBF0F009
:1022C000B0FBF1F06FF01802504306EB800003EB17
:1022D0000010B0FBF1F0216800F00F002844886086
:1022E00070BD00000038014081628285C2850021F6
:1022F0000164222280F83E2080F83C100168CA6800
:1023000042F48072CA6001684A6942F001024A617F
:102310000068C16841F02001C160002070472DE9CC
:10232000F041984617460E460446069D1DE0681C7F
:102330001BD02DB1FEF796FCA0EB0800A84214D9E3
:102340002068C16821F4D071C1602068416921F022
:1023500001014161202084F83D0084F83E00002006
:1023600084F83C000320BDE8F0812068006836EA6C
:10237000000004D00020B842D9D00020F3E70120AB
:10238000F9E700000148FEF7A3BF00006800002045
:10239000FEE710B504464FF6FF73FFF76DF92046D0
:1023A000FEF790FF2128FAD010BD00000FB4054BB6
:1023B00010B503A9044A029800F0EEF810BC5DF8CD
:1023C00014FB0000D12C0008180000200FB4084BAB
:1023D00010B504A902AA039800F0DEF8044602A989
:1023E000002000F070FC204610BC5DF814FB0000DB
:1023F000C72C00080907090E002804DB00F1E020C3
:1024000080F80014704700F00F0000F1E02080F821
:10241000141D704702E008C8121F08C1002AFAD133
:1024200070477047002001E001C1121F002AFBD154
:10243000704700002DE9FF5FDDE90220010DDDF8A6
:1024400038B0024318D044F61050A1F2FF31414396
:102450000D140F98012820D0A5EB0B00401C5FEA5B
:10246000000A4FF00004474EDFF81C91A04650468A
:1024700016D5CAF1000728E00F98012443A20128CD
:1024800008D0002100980F9BC0E90021C0E9024359
:10249000BDE8FF9F6FEA0B01F4E7CBF10000DEE738
:1024A000074612E0F80707D0224633464046494621
:1024B000FDF79DFF80468946224633461046194661
:1024C000FDF795FF04460E467F10002FEAD1DDE9A7
:1024D0000201BAF1000F42464B4602DAFDF787FFD0
:1024E00001E0FDF7F6FF04460E460022284BFEF7FA
:1024F00077F803D84FF0FF30014607E00022254B64
:1025000020463146FDF7CCFEFEF752F8102409E0D4
:10251000002C0ADB0A220023FDF791FE019B3032DA
:102520001A55641E50EA0102F2D1641C019AC4F1EA
:10253000110314440F9A012A03D0012208430DD13C
:102540000AE0084304D000204FF0110B0F9080E701
:10255000A3EB0B056D1E0DE05B4504DD4FF00002A3
:1025600005F1010504E003DA4FF00002A5F10105D1
:10257000002AECD000980F99C0E90231C0E900456B
:1025800086E70000000024400000F03F300000001B
:102590000000F0430000E03F2DE9FF4F95B09B465F
:1025A0008946064600250FE2252877D100242746D4
:1025B000F84A0121059400E0044316F8013F203B4E
:1025C00001FA03F01042F7D130782A2811D06FF0C9
:1025D0002F033078A0F13002092A16D8059A44F06A
:1025E000020402EB820203EB42021044761C0590C7
:1025F000EFE759F8042B0592002A03DA504244F41D
:102600000054059044F00204761C30782E2816D130
:1026100016F8010F44F004042A280DD06FF02F02A1
:102620003078A0F13003092B09D807EB870302EBC0
:102630004303C718761CF3E759F8047B761C3078FF
:102640006C280FD006DC4C2817D068280DD06A28DB
:1026500014D104E0742810D07A280FD10DE044F48E
:1026600000140AE044F4801401E044F44014727849
:10267000824202D104F58014761C761C30786628DC
:102680000BD013DC582877D009DC002875D04528FA
:10269000F6D04628F4D047281AD19DE118E06328E7
:1026A00035D0642879D0652812D195E1702873D08F
:1026B00008DC6728F1D069286FD06E280DD06F280C
:1026C00006D1B5E073282CD0752875D0782874D041
:1026D0005A46179990476D1C75E1C4F302500228C1
:1026E00009D003280DD0D9F8001004280DD00D60B2
:1026F00009F1040967E1D9F80010EA17C1E90052AD
:10270000F6E7D9F800100D80F2E70D70F0E719F840
:10271000041B8DF8001000208DF80100EA4601200E
:1027200003E059F804AB4FF0FF3061074FF00001B0
:1027300002D40DE008F101018846B9420FDA804564
:10274000F8DB1AF808100029F4D108E008F10101BB
:1027500088468142FADB1AF808100029F6D105985C
:102760005B46A0EB080721463846179A00F094FA1A
:10277000284400EB080507E04DE029E10DE01AF8D8
:10278000010B5A4617999047B8F10108F7D25B46FA
:1027900021463846179A13E142E00A220092C4F318
:1027A00002524FF0000A022A08D059F804CB032A3B
:1027B0004FEAEC710AD00DE029E02AE009F10701A7
:1027C00021F00702F2E802C1914609E00FFA8CFC01
:1027D0004FEAEC71042A03D14FFA8CFC4FEAEC71FA
:1027E000002907DA0A460021DCF1000C61EB020146
:1027F0002D2202E0220504D52B228DF8042001228F
:1028000003E0E20701D02022F7E7904659E00A21D1
:1028100002E010220DE010214FF0000A00910BE0C1
:1028200010224FF0000A44F004040827009203E04D
:1028300008224FF0000A0092C4F30252022A05D087
:1028400059F804CB0021032A08D009E009F1070157
:1028500021F00702F2E802C1914605E01FFA8CFC64
:10286000042A01D10CF0FF0C4FF00008220728D5F4
:10287000702806D0009B83F0100353EA0A0305D0AA
:102880000EE040228DF80420012208E05CEA0102FB
:1028900006D030228DF804208DF8050002229046E3
:1028A000009B83F0080353EA0A030AD15CEA0102A1
:1028B00001D1620705D530228DF804204FF00108C0
:1028C0007F1E582804D034A003900EA802900DE07B
:1028D00036A0F9E753466046009AFDF7B0FC8446FF
:1028E0000398825C0298401E029002705CEA01002C
:1028F000F0D1029806A9081A00F1200A600702D553
:1029000024F4803400E00127574502DDA7EB0A00DC
:1029100000E0002000EB0A01009005984144401AB5
:102920000590E00306D45B462146179A059800F00F
:10293000B3F90544002706E001A85A46C05D17997F
:1029400090476D1C7F1C4745F6DBE0030CD55B46CA
:102950002146179A059800F09FF9054404E03020BD
:102960005A46179990476D1C0099481E00900029FF
:10297000F5DC08E0029802995A460078491C029159
:10298000179990476D1CBAF10001AAF1010AF1DC18
:1029900065E1000009280100303132333435363723
:1029A000383961626364656600000000303132339B
:1029B000343536373839414243444546000000003B
:1029C00000F058F90544761C307800287FF4ECAD0F
:1029D00019B02846BDE8F08F620700D4062709F138
:1029E000070222F0070CFCE80223E14603F000484E
:1029F0005FEA080C02D00FF2702C0DE05FEA045C75
:102A000002D50FF2682C07E05FEAC47C02D00FF217
:102A1000602C01E0AFF2700C4FF0FF3823F0004360
:102A2000CDF850C065280CD006DC452809D04628D2
:102A30001DD047283DD13DE0662818D067287ED1BB
:102A400038E00021112F01DB112000E0781CCDE9D6
:102A5000000106A90EA8FFF7EDFCDDE90F010E9AB3
:102A600003910021009207F1010A04914DE04FF01B
:102A700000400097CDE9011006A90EA8FFF7DAFC87
:102A8000DDE90F0203920E9B11990022DDF80CA0E4
:102A90000093049211B9791C00EB010AB7EB0A000C
:102AA00004D4C0F1FF3007F1010A0490AAEB07003B
:102AB000019044E0012F00DA01270021112F01DDF0
:102AC000112000E03846CDE9000106A90EA8FFF765
:102AD000B1FCDDE90F010E9A0391002104910092EF
:102AE000BA4621070CD40399514500DA8A46BAF157
:102AF000010F05DD009AAAF10101515C302908D0CF
:102B0000B84202DA10F1040F06DA0121CDE9011012
:102B100015E0AAF10101E9E7002805DC0499014468
:102B20000491AAEB000102E0411C514500DD8A46F8
:102B30000499401A401C01904FF000400290200779
:102B400004D40198504501DBCDF8048000208DF8B5
:102B50004F0002980DF14F07B0F1004F25D02B2008
:102B60000E9002984FF0020800280CDA40420290C2
:102B70002D200E9007E00A210298FDF74AFB303124
:102B8000029007F8011DB8F10001A8F10108F2DC7C
:102B900002980028EFD1791E0E980870307800F066
:102BA000200040F0450007F8020D12A8C01B00F1FC
:102BB00007081498007800B1012000EB0A01019881
:102BC00001EBE07105984144401A401E0590E00376
:102BD00006D45B462146179A059800F05DF8054437
:102BE0001498007818B15A46179990476D1CE00365
:102BF00024D55B462146179A059800F04DF8054408
:102C00001CE00498002807DBDDE90301884203DDAE
:102C10000098405C179901E0179930205A46904778
:102C2000049805F10105401C04900198401E019094
:102C300004D12E205A46179990476D1CBAF1000115
:102C4000AAF1010ADDDC05E017F8010B5A461799D5
:102C500090476D1CB8F10001A8F10108F4DC5B4657
:102C60002146179A0598ABE62D0000002B000000C6
:102C7000200000002DE9F041044600251E461746BD
:102C8000880404D405E039462020B0476D1C641E3A
:102C9000F9D52846BDE8F0812DE9F041044600252C
:102CA0001E469046C80301D5302700E0202788043F
:102CB00004D505E041463846B0476D1C641EF9D581
:102CC0002846BDE8F0810A68531C0B6010707047FD
:102CD00013B54FF6FF73012269460248FEF7CCFC9C
:102CE00000981CBD2400002010B5002821D0114BF5
:102CF0000022001F196803E0814203D80A46496890
:102D00000029F9D152B11368841A9C4204D1006899
:102D100018441060104602E0506000E0186039B1BD
:102D200002680B1A934203D10B681A440260496887
:102D3000416010BD1C000020FDF7A2FFFFF7CCF999
:102D4000FEF7A4FFFEF7C0FFFEF7DAFF01220E49EF
:102D50000E48FEF75DFC4FF4FA642046FDF780FE56
:102D6000FDF716FD2046FDF77BFEFEF7E7FF002886
:102D7000F8D140F6B83400BFFFF740F9FDF7DAFCB0
:102D80002046FDF76DFEF7E71400002068000020E4
:102D9000F0B50B30154D20F007010024144A0FE068
:102DA00003688B420BD38B4205D95E1A43184768E0
:102DB000C3E9006700E04368136002C004E0021D3D
:102DC00010680028ECD12046002802D1286808B1FC
:102DD0000020F0BD064A07481060074A121A22F088
:102DE0000702C0E9002401202860D7E72000002066
:102DF0001C000020340100203003002000000000EF
:102E0000000000000102030406070809000000009A
:102E100001020304342E00080000002024000000FA
:102E200014240008582E0008240000200C0700007D
:102E30002424000801000000100000000000000031
:102E40000024F4000000000000000000000000006A
:082E500000000000000000007A
:04000005080000ED02
:00000001FF
